{
  "_format": "hh-sol-artifact-1",
  "contractName": "MusicRoyalty",
  "sourceName": "contracts/MusicRoyalty.sol",
  "abi": [
    {
      "anonymous": false,
      "inputs": [
        {
          "indexed": true,
          "internalType": "address",
          "name": "user",
          "type": "address"
        },
        {
          "indexed": false,
          "internalType": "uint256",
          "name": "amount",
          "type": "uint256"
        }
      ],
      "name": "RoyaltyClaimed",
      "type": "event"
    },
    {
      "anonymous": false,
      "inputs": [
        {
          "indexed": true,
          "internalType": "uint256",
          "name": "songId",
          "type": "uint256"
        },
        {
          "indexed": true,
          "internalType": "address",
          "name": "listener",
          "type": "address"
        },
        {
          "indexed": false,
          "internalType": "uint256",
          "name": "amount",
          "type": "uint256"
        }
      ],
      "name": "SongPlayed",
      "type": "event"
    },
    {
      "anonymous": false,
      "inputs": [
        {
          "indexed": true,
          "internalType": "uint256",
          "name": "songId",
          "type": "uint256"
        },
        {
          "indexed": false,
          "internalType": "string",
          "name": "title",
          "type": "string"
        },
        {
          "indexed": false,
          "internalType": "string",
          "name": "artist",
          "type": "string"
        },
        {
          "indexed": true,
          "internalType": "address",
          "name": "uploader",
          "type": "address"
        }
      ],
      "name": "SongUploaded",
      "type": "event"
    },
    {
      "inputs": [],
      "name": "claimRoyalty",
      "outputs": [],
      "stateMutability": "nonpayable",
      "type": "function"
    },
    {
      "inputs": [],
      "name": "getAllSongs",
      "outputs": [
        {
          "components": [
            {
              "internalType": "uint256",
              "name": "id",
              "type": "uint256"
            },
            {
              "internalType": "string",
              "name": "title",
              "type": "string"
            },
            {
              "internalType": "string",
              "name": "artist",
              "type": "string"
            },
            {
              "internalType": "string",
              "name": "metadataURI",
              "type": "string"
            },
            {
              "internalType": "address",
              "name": "uploader",
              "type": "address"
            },
            {
              "internalType": "uint256",
              "name": "playCount",
              "type": "uint256"
            },
            {
              "internalType": "uint256",
              "name": "totalRoyalty",
              "type": "uint256"
            },
            {
              "internalType": "bool",
              "name": "exists",
              "type": "bool"
            }
          ],
          "internalType": "struct MusicRoyalty.Song[]",
          "name": "",
          "type": "tuple[]"
        }
      ],
      "stateMutability": "view",
      "type": "function"
    },
    {
      "inputs": [
        {
          "internalType": "uint256",
          "name": "_songId",
          "type": "uint256"
        }
      ],
      "name": "getCollaborators",
      "outputs": [
        {
          "components": [
            {
              "internalType": "address",
              "name": "wallet",
              "type": "address"
            },
            {
              "internalType": "uint256",
              "name": "percentage",
              "type": "uint256"
            }
          ],
          "internalType": "struct MusicRoyalty.Collaborator[]",
          "name": "",
          "type": "tuple[]"
        }
      ],
      "stateMutability": "view",
      "type": "function"
    },
    {
      "inputs": [
        {
          "internalType": "uint256",
          "name": "_songId",
          "type": "uint256"
        }
      ],
      "name": "getSong",
      "outputs": [
        {
          "internalType": "uint256",
          "name": "id",
          "type": "uint256"
        },
        {
          "internalType": "string",
          "name": "title",
          "type": "string"
        },
        {
          "internalType": "string",
          "name": "artist",
          "type": "string"
        },
        {
          "internalType": "string",
          "name": "metadataURI",
          "type": "string"
        },
        {
          "internalType": "address",
          "name": "uploader",
          "type": "address"
        },
        {
          "internalType": "uint256",
          "name": "playCount",
          "type": "uint256"
        },
        {
          "internalType": "uint256",
          "name": "totalRoyalty",
          "type": "uint256"
        }
      ],
      "stateMutability": "view",
      "type": "function"
    },
    {
      "inputs": [
        {
          "internalType": "uint256",
          "name": "_songId",
          "type": "uint256"
        }
      ],
      "name": "playSong",
      "outputs": [],
      "stateMutability": "payable",
      "type": "function"
    },
    {
      "inputs": [
        {
          "internalType": "address",
          "name": "",
          "type": "address"
        }
      ],
      "name": "royaltyBalances",
      "outputs": [
        {
          "internalType": "uint256",
          "name": "",
          "type": "uint256"
        }
      ],
      "stateMutability": "view",
      "type": "function"
    },
    {
      "inputs": [],
      "name": "songCount",
      "outputs": [
        {
          "internalType": "uint256",
          "name": "",
          "type": "uint256"
        }
      ],
      "stateMutability": "view",
      "type": "function"
    },
    {
      "inputs": [
        {
          "internalType": "uint256",
          "name": "",
          "type": "uint256"
        }
      ],
      "name": "songs",
      "outputs": [
        {
          "internalType": "uint256",
          "name": "id",
          "type": "uint256"
        },
        {
          "internalType": "string",
          "name": "title",
          "type": "string"
        },
        {
          "internalType": "string",
          "name": "artist",
          "type": "string"
        },
        {
          "internalType": "string",
          "name": "metadataURI",
          "type": "string"
        },
        {
          "internalType": "address",
          "name": "uploader",
          "type": "address"
        },
        {
          "internalType": "uint256",
          "name": "playCount",
          "type": "uint256"
        },
        {
          "internalType": "uint256",
          "name": "totalRoyalty",
          "type": "uint256"
        },
        {
          "internalType": "bool",
          "name": "exists",
          "type": "bool"
        }
      ],
      "stateMutability": "view",
      "type": "function"
    },
    {
      "inputs": [
        {
          "internalType": "string",
          "name": "_title",
          "type": "string"
        },
        {
          "internalType": "string",
          "name": "_artist",
          "type": "string"
        },
        {
          "internalType": "string",
          "name": "_metadataURI",
          "type": "string"
        },
        {
          "internalType": "address[]",
          "name": "_wallets",
          "type": "address[]"
        },
        {
          "internalType": "uint256[]",
          "name": "_percentages",
          "type": "uint256[]"
        }
      ],
      "name": "uploadSong",
      "outputs": [],
      "stateMutability": "nonpayable",
      "type": "function"
    }
  ],
  "bytecode": "0x608060405234801561001057600080fd5b506128bd806100206000396000f3fe6080604052600436106100865760003560e01c806342acaa661161005957806342acaa6614610174578063613ef850146101b7578063759950e6146101e0578063900e92c4146101fc578063931a889b1461021357610086565b806329ef68621461008b5780632bd7ed5a146100b6578063304cff30146100f357806333f6df8f14610137575b600080fd5b34801561009757600080fd5b506100a061023e565b6040516100ad9190611832565b60405180910390f35b3480156100c257600080fd5b506100dd60048036038101906100d89190611894565b610552565b6040516100ea919061199f565b60405180910390f35b3480156100ff57600080fd5b5061011a60048036038101906101159190611894565b610687565b60405161012e989796959493929190611a38565b60405180910390f35b34801561014357600080fd5b5061015e60048036038101906101599190611af7565b610894565b60405161016b9190611b24565b60405180910390f35b34801561018057600080fd5b5061019b60048036038101906101969190611894565b6108ac565b6040516101ae9796959493929190611b3f565b60405180910390f35b3480156101c357600080fd5b506101de60048036038101906101d99190611e83565b610bc0565b005b6101fa60048036038101906101f59190611894565b6110f8565b005b34801561020857600080fd5b506102116113e6565b005b34801561021f57600080fd5b5061022861154a565b6040516102359190611b24565b60405180910390f35b60606000805467ffffffffffffffff81111561025d5761025c611bcd565b5b60405190808252806020026020018201604052801561029657816020015b610283611550565b81526020019060019003908161027b5790505b5090506000600190505b600054811161054a576001600082815260200190815260200160002060405180610100016040529081600082015481526020016001820180546102e290611fb9565b80601f016020809104026020016040519081016040528092919081815260200182805461030e90611fb9565b801561035b5780601f106103305761010080835404028352916020019161035b565b820191906000526020600020905b81548152906001019060200180831161033e57829003601f168201915b5050505050815260200160028201805461037490611fb9565b80601f01602080910402602001604051908101604052809291908181526020018280546103a090611fb9565b80156103ed5780601f106103c2576101008083540402835291602001916103ed565b820191906000526020600020905b8154815290600101906020018083116103d057829003601f168201915b5050505050815260200160038201805461040690611fb9565b80601f016020809104026020016040519081016040528092919081815260200182805461043290611fb9565b801561047f5780601f106104545761010080835404028352916020019161047f565b820191906000526020600020905b81548152906001019060200180831161046257829003601f168201915b505050505081526020016004820160009054906101000a900473ffffffffffffffffffffffffffffffffffffffff1673ffffffffffffffffffffffffffffffffffffffff1673ffffffffffffffffffffffffffffffffffffffff16815260200160058201548152602001600682015481526020016007820160009054906101000a900460ff1615151515815250508260018361051b9190612019565b8151811061052c5761052b61204d565b5b602002602001018190525080806105429061207c565b9150506102a0565b508091505090565b60606001600083815260200190815260200160002060070160009054906101000a900460ff166105b7576040517f08c379a00000000000000000000000000000000000000000000000000000000081526004016105ae90612110565b60405180910390fd5b60026000838152602001908152602001600020805480602002602001604051908101604052809291908181526020016000905b8282101561067c57838290600052602060002090600202016040518060400160405290816000820160009054906101000a900473ffffffffffffffffffffffffffffffffffffffff1673ffffffffffffffffffffffffffffffffffffffff1673ffffffffffffffffffffffffffffffffffffffff168152602001600182015481525050815260200190600101906105ea565b505050509050919050565b60016020528060005260406000206000915090508060000154908060010180546106b090611fb9565b80601f01602080910402602001604051908101604052809291908181526020018280546106dc90611fb9565b80156107295780601f106106fe57610100808354040283529160200191610729565b820191906000526020600020905b81548152906001019060200180831161070c57829003601f168201915b50505050509080600201805461073e90611fb9565b80601f016020809104026020016040519081016040528092919081815260200182805461076a90611fb9565b80156107b75780601f1061078c576101008083540402835291602001916107b7565b820191906000526020600020905b81548152906001019060200180831161079a57829003601f168201915b5050505050908060030180546107cc90611fb9565b80601f01602080910402602001604051908101604052809291908181526020018280546107f890611fb9565b80156108455780601f1061081a57610100808354040283529160200191610845565b820191906000526020600020905b81548152906001019060200180831161082857829003601f168201915b5050505050908060040160009054906101000a900473ffffffffffffffffffffffffffffffffffffffff16908060050154908060060154908060070160009054906101000a900460ff16905088565b60036020528060005260406000206000915090505481565b6000606080606060008060006001600089815260200190815260200160002060070160009054906101000a900460ff1661091b576040517f08c379a000000000000000000000000000000000000000000000000000000000815260040161091290612110565b60405180910390fd5b6000600160008a8152602001908152602001600020604051806101000160405290816000820154815260200160018201805461095690611fb9565b80601f016020809104026020016040519081016040528092919081815260200182805461098290611fb9565b80156109cf5780601f106109a4576101008083540402835291602001916109cf565b820191906000526020600020905b8154815290600101906020018083116109b257829003601f168201915b505050505081526020016002820180546109e890611fb9565b80601f0160208091040260200160405190810160405280929190818152602001828054610a1490611fb9565b8015610a615780601f10610a3657610100808354040283529160200191610a61565b820191906000526020600020905b815481529060010190602001808311610a4457829003601f168201915b50505050508152602001600382018054610a7a90611fb9565b80601f0160208091040260200160405190810160405280929190818152602001828054610aa690611fb9565b8015610af35780601f10610ac857610100808354040283529160200191610af3565b820191906000526020600020905b815481529060010190602001808311610ad657829003601f168201915b505050505081526020016004820160009054906101000a900473ffffffffffffffffffffffffffffffffffffffff1673ffffffffffffffffffffffffffffffffffffffff1673ffffffffffffffffffffffffffffffffffffffff16815260200160058201548152602001600682015481526020016007820160009054906101000a900460ff1615151515815250509050806000015181602001518260400151836060015184608001518560a001518660c00151975097509750975097509750975050919395979092949650565b6000855111610c04576040517f08c379a0000000000000000000000000000000000000000000000000000000008152600401610bfb9061217c565b60405180910390fd5b6000845111610c48576040517f08c379a0000000000000000000000000000000000000000000000000000000008152600401610c3f906121e8565b60405180910390fd5b6000825111610c8c576040517f08c379a0000000000000000000000000000000000000000000000000000000008152600401610c8390612254565b60405180910390fd5b8051825114610cd0576040517f08c379a0000000000000000000000000000000000000000000000000000000008152600401610cc7906122c0565b60405180910390fd5b6000805b8251811015610dfe57600073ffffffffffffffffffffffffffffffffffffffff16848281518110610d0857610d0761204d565b5b602002602001015173ffffffffffffffffffffffffffffffffffffffff1603610d66576040517f08c379a0000000000000000000000000000000000000000000000000000000008152600401610d5d9061232c565b60405180910390fd5b6000838281518110610d7b57610d7a61204d565b5b602002602001015111610dc3576040517f08c379a0000000000000000000000000000000000000000000000000000000008152600401610dba90612398565b60405180910390fd5b828181518110610dd657610dd561204d565b5b602002602001015182610de991906123b8565b91508080610df69061207c565b915050610cd4565b5060648114610e42576040517f08c379a0000000000000000000000000000000000000000000000000000000008152600401610e3990612438565b60405180910390fd5b600080815480929190610e549061207c565b919050555060405180610100016040528060005481526020018781526020018681526020018581526020013373ffffffffffffffffffffffffffffffffffffffff1681526020016000815260200160008152602001600115158152506001600080548152602001908152602001600020600082015181600001556020820151816001019081610ee39190612604565b506040820151816002019081610ef99190612604565b506060820151816003019081610f0f9190612604565b5060808201518160040160006101000a81548173ffffffffffffffffffffffffffffffffffffffff021916908373ffffffffffffffffffffffffffffffffffffffff16021790555060a0820151816005015560c0820151816006015560e08201518160070160006101000a81548160ff02191690831515021790555090505060005b835181101561109c5760026000805481526020019081526020016000206040518060400160405280868481518110610fcc57610fcb61204d565b5b602002602001015173ffffffffffffffffffffffffffffffffffffffff1681526020018584815181106110025761100161204d565b5b6020026020010151815250908060018154018082558091505060019003906000526020600020906002020160009091909190915060008201518160000160006101000a81548173ffffffffffffffffffffffffffffffffffffffff021916908373ffffffffffffffffffffffffffffffffffffffff16021790555060208201518160010155505080806110949061207c565b915050610f91565b503373ffffffffffffffffffffffffffffffffffffffff166000547fc97da9551a9ccb2be1c73f3961f1c32602058096a8f6f65e9d0e74999e2f3b8788886040516110e89291906126d6565b60405180910390a3505050505050565b6001600082815260200190815260200160002060070160009054906101000a900460ff1661115b576040517f08c379a000000000000000000000000000000000000000000000000000000000815260040161115290612110565b60405180910390fd5b6000341161119e576040517f08c379a000000000000000000000000000000000000000000000000000000000815260040161119590612759565b60405180910390fd5b6001600082815260200190815260200160002060050160008154809291906111c59061207c565b9190505550346001600083815260200190815260200160002060060160008282546111f091906123b8565b92505081905550600060026000838152602001908152602001600020805480602002602001604051908101604052809291908181526020016000905b828210156112be57838290600052602060002090600202016040518060400160405290816000820160009054906101000a900473ffffffffffffffffffffffffffffffffffffffff1673ffffffffffffffffffffffffffffffffffffffff1673ffffffffffffffffffffffffffffffffffffffff1681526020016001820154815250508152602001906001019061122c565b50505050905060005b815181101561139257600060648383815181106112e7576112e661204d565b5b602002602001015160200151346112fe9190612779565b61130891906127ea565b905080600360008585815181106113225761132161204d565b5b60200260200101516000015173ffffffffffffffffffffffffffffffffffffffff1673ffffffffffffffffffffffffffffffffffffffff168152602001908152602001600020600082825461137791906123b8565b9250508190555050808061138a9061207c565b9150506112c7565b503373ffffffffffffffffffffffffffffffffffffffff16827fda981866f885d84a85889b5812a6817aae98524ad6b3e9b5b5c0325a3b0af610346040516113da9190611b24565b60405180910390a35050565b6000600360003373ffffffffffffffffffffffffffffffffffffffff1673ffffffffffffffffffffffffffffffffffffffff1681526020019081526020016000205490506000811161146d576040517f08c379a000000000000000000000000000000000000000000000000000000000815260040161146490612867565b60405180910390fd5b6000600360003373ffffffffffffffffffffffffffffffffffffffff1673ffffffffffffffffffffffffffffffffffffffff168152602001908152602001600020819055503373ffffffffffffffffffffffffffffffffffffffff166108fc829081150290604051600060405180830381858888f193505050501580156114f8573d6000803e3d6000fd5b503373ffffffffffffffffffffffffffffffffffffffff167f4dde06d146f45c5901140b17cd6e3c65b3767f374b735f91bdf1bcff9e649c7a8260405161153f9190611b24565b60405180910390a250565b60005481565b60405180610100016040528060008152602001606081526020016060815260200160608152602001600073ffffffffffffffffffffffffffffffffffffffff16815260200160008152602001600081526020016000151581525090565b600081519050919050565b600082825260208201905092915050565b6000819050602082019050919050565b6000819050919050565b6115ec816115d9565b82525050565b600081519050919050565b600082825260208201905092915050565b60005b8381101561162c578082015181840152602081019050611611565b60008484015250505050565b6000601f19601f8301169050919050565b6000611654826115f2565b61165e81856115fd565b935061166e81856020860161160e565b61167781611638565b840191505092915050565b600073ffffffffffffffffffffffffffffffffffffffff82169050919050565b60006116ad82611682565b9050919050565b6116bd816116a2565b82525050565b60008115159050919050565b6116d8816116c3565b82525050565b6000610100830160008301516116f760008601826115e3565b506020830151848203602086015261170f8282611649565b915050604083015184820360408601526117298282611649565b915050606083015184820360608601526117438282611649565b915050608083015161175860808601826116b4565b5060a083015161176b60a08601826115e3565b5060c083015161177e60c08601826115e3565b5060e083015161179160e08601826116cf565b508091505092915050565b60006117a883836116de565b905092915050565b6000602082019050919050565b60006117c8826115ad565b6117d281856115b8565b9350836020820285016117e4856115c9565b8060005b858110156118205784840389528151611801858261179c565b945061180c836117b0565b925060208a019950506001810190506117e8565b50829750879550505050505092915050565b6000602082019050818103600083015261184c81846117bd565b905092915050565b6000604051905090565b600080fd5b600080fd5b611871816115d9565b811461187c57600080fd5b50565b60008135905061188e81611868565b92915050565b6000602082840312156118aa576118a961185e565b5b60006118b88482850161187f565b91505092915050565b600081519050919050565b600082825260208201905092915050565b6000819050602082019050919050565b60408201600082015161190360008501826116b4565b50602082015161191660208501826115e3565b50505050565b600061192883836118ed565b60408301905092915050565b6000602082019050919050565b600061194c826118c1565b61195681856118cc565b9350611961836118dd565b8060005b83811015611992578151611979888261191c565b975061198483611934565b925050600181019050611965565b5085935050505092915050565b600060208201905081810360008301526119b98184611941565b905092915050565b6119ca816115d9565b82525050565b600082825260208201905092915050565b60006119ec826115f2565b6119f681856119d0565b9350611a0681856020860161160e565b611a0f81611638565b840191505092915050565b611a23816116a2565b82525050565b611a32816116c3565b82525050565b600061010082019050611a4e600083018b6119c1565b8181036020830152611a60818a6119e1565b90508181036040830152611a7481896119e1565b90508181036060830152611a8881886119e1565b9050611a976080830187611a1a565b611aa460a08301866119c1565b611ab160c08301856119c1565b611abe60e0830184611a29565b9998505050505050505050565b611ad4816116a2565b8114611adf57600080fd5b50565b600081359050611af181611acb565b92915050565b600060208284031215611b0d57611b0c61185e565b5b6000611b1b84828501611ae2565b91505092915050565b6000602082019050611b3960008301846119c1565b92915050565b600060e082019050611b54600083018a6119c1565b8181036020830152611b6681896119e1565b90508181036040830152611b7a81886119e1565b90508181036060830152611b8e81876119e1565b9050611b9d6080830186611a1a565b611baa60a08301856119c1565b611bb760c08301846119c1565b98975050505050505050565b600080fd5b600080fd5b7f4e487b7100000000000000000000000000000000000000000000000000000000600052604160045260246000fd5b611c0582611638565b810181811067ffffffffffffffff82111715611c2457611c23611bcd565b5b80604052505050565b6000611c37611854565b9050611c438282611bfc565b919050565b600067ffffffffffffffff821115611c6357611c62611bcd565b5b611c6c82611638565b9050602081019050919050565b82818337600083830152505050565b6000611c9b611c9684611c48565b611c2d565b905082815260208101848484011115611cb757611cb6611bc8565b5b611cc2848285611c79565b509392505050565b600082601f830112611cdf57611cde611bc3565b5b8135611cef848260208601611c88565b91505092915050565b600067ffffffffffffffff821115611d1357611d12611bcd565b5b602082029050602081019050919050565b600080fd5b6000611d3c611d3784611cf8565b611c2d565b90508083825260208201905060208402830185811115611d5f57611d5e611d24565b5b835b81811015611d885780611d748882611ae2565b845260208401935050602081019050611d61565b5050509392505050565b600082601f830112611da757611da6611bc3565b5b8135611db7848260208601611d29565b91505092915050565b600067ffffffffffffffff821115611ddb57611dda611bcd565b5b602082029050602081019050919050565b6000611dff611dfa84611dc0565b611c2d565b90508083825260208201905060208402830185811115611e2257611e21611d24565b5b835b81811015611e4b5780611e37888261187f565b845260208401935050602081019050611e24565b5050509392505050565b600082601f830112611e6a57611e69611bc3565b5b8135611e7a848260208601611dec565b91505092915050565b600080600080600060a08688031215611e9f57611e9e61185e565b5b600086013567ffffffffffffffff811115611ebd57611ebc611863565b5b611ec988828901611cca565b955050602086013567ffffffffffffffff811115611eea57611ee9611863565b5b611ef688828901611cca565b945050604086013567ffffffffffffffff811115611f1757611f16611863565b5b611f2388828901611cca565b935050606086013567ffffffffffffffff811115611f4457611f43611863565b5b611f5088828901611d92565b925050608086013567ffffffffffffffff811115611f7157611f70611863565b5b611f7d88828901611e55565b9150509295509295909350565b7f4e487b7100000000000000000000000000000000000000000000000000000000600052602260045260246000fd5b60006002820490506001821680611fd157607f821691505b602082108103611fe457611fe3611f8a565b5b50919050565b7f4e487b7100000000000000000000000000000000000000000000000000000000600052601160045260246000fd5b6000612024826115d9565b915061202f836115d9565b925082820390508181111561204757612046611fea565b5b92915050565b7f4e487b7100000000000000000000000000000000000000000000000000000000600052603260045260246000fd5b6000612087826115d9565b91507fffffffffffffffffffffffffffffffffffffffffffffffffffffffffffffffff82036120b9576120b8611fea565b5b600182019050919050565b7f4c61677520746964616b20646974656d756b616e000000000000000000000000600082015250565b60006120fa6014836119d0565b9150612105826120c4565b602082019050919050565b60006020820190508181036000830152612129816120ed565b9050919050565b7f4a7564756c206c6167752077616a696220646969736900000000000000000000600082015250565b60006121666016836119d0565b915061217182612130565b602082019050919050565b6000602082019050818103600083015261219581612159565b9050919050565b7f4e616d612061727469732077616a696220646969736900000000000000000000600082015250565b60006121d26016836119d0565b91506121dd8261219c565b602082019050919050565b60006020820190508181036000830152612201816121c5565b9050919050565b7f4d696e696d616c2073617475206b6f6c61626f7261746f720000000000000000600082015250565b600061223e6018836119d0565b915061224982612208565b602082019050919050565b6000602082019050818103600083015261226d81612231565b9050919050565b7f44617461206b6f6c61626f7261746f7220746964616b20736573756169000000600082015250565b60006122aa601d836119d0565b91506122b582612274565b602082019050919050565b600060208201905081810360008301526122d98161229d565b9050919050565b7f57616c6c657420746964616b2076616c69640000000000000000000000000000600082015250565b60006123166012836119d0565b9150612321826122e0565b602082019050919050565b6000602082019050818103600083015261234581612309565b9050919050565b7f50657273656e74617365206861727573206c6562696820646172692030000000600082015250565b6000612382601d836119d0565b915061238d8261234c565b602082019050919050565b600060208201905081810360008301526123b181612375565b9050919050565b60006123c3826115d9565b91506123ce836115d9565b92508282019050808211156123e6576123e5611fea565b5b92915050565b7f546f74616c2070657273656e7461736520686172757320313030000000000000600082015250565b6000612422601a836119d0565b915061242d826123ec565b602082019050919050565b6000602082019050818103600083015261245181612415565b9050919050565b60008190508160005260206000209050919050565b60006020601f8301049050919050565b600082821b905092915050565b6000600883026124ba7fffffffffffffffffffffffffffffffffffffffffffffffffffffffffffffffff8261247d565b6124c4868361247d565b95508019841693508086168417925050509392505050565b6000819050919050565b60006125016124fc6124f7846115d9565b6124dc565b6115d9565b9050919050565b6000819050919050565b61251b836124e6565b61252f61252782612508565b84845461248a565b825550505050565b600090565b612544612537565b61254f818484612512565b505050565b5b818110156125735761256860008261253c565b600181019050612555565b5050565b601f8211156125b85761258981612458565b6125928461246d565b810160208510156125a1578190505b6125b56125ad8561246d565b830182612554565b50505b505050565b600082821c905092915050565b60006125db600019846008026125bd565b1980831691505092915050565b60006125f483836125ca565b9150826002028217905092915050565b61260d826115f2565b67ffffffffffffffff81111561262657612625611bcd565b5b6126308254611fb9565b61263b828285612577565b600060209050601f83116001811461266e576000841561265c578287015190505b61266685826125e8565b8655506126ce565b601f19841661267c86612458565b60005b828110156126a45784890151825560018201915060208501945060208101905061267f565b868310156126c157848901516126bd601f8916826125ca565b8355505b6001600288020188555050505b505050505050565b600060408201905081810360008301526126f081856119e1565b9050818103602083015261270481846119e1565b90509392505050565b7f526f79616c7469206861727573206c6562696820646172692030000000000000600082015250565b6000612743601a836119d0565b915061274e8261270d565b602082019050919050565b6000602082019050818103600083015261277281612736565b9050919050565b6000612784826115d9565b915061278f836115d9565b925082820261279d816115d9565b915082820484148315176127b4576127b3611fea565b5b5092915050565b7f4e487b7100000000000000000000000000000000000000000000000000000000600052601260045260246000fd5b60006127f5826115d9565b9150612800836115d9565b9250826128105761280f6127bb565b5b828204905092915050565b7f546964616b2061646120726f79616c746920756e74756b2064696b6c61696d00600082015250565b6000612851601f836119d0565b915061285c8261281b565b602082019050919050565b6000602082019050818103600083015261288081612844565b905091905056fea26469706673582212204c4f84dd4a2a9bd32cdfcfcca52079e5682690700a63e3c90270e978400c28fe64736f6c63430008140033",
  "linkReferences": {},
  "deployedLinkReferences": {}
}